:020000040800F2
:1000000098040020450100084D0100084F01000838
:1000100051010008530100085501000800000000CC
:100020000000000000000000000000005701000870
:1000300059010008000000005B0100085D01000894
:100040005F0100085F0100085F0100085F01000810
:100050005F0100085F0100085F0100085F01000800
:100060005F0100085F0100085F0100085F010008F0
:100070005F0100085F0100085F0100085F010008E0
:100080005F0100085F0100085F0100085F010008D0
:100090005F0100085F0100085F0100085F010008C0
:1000A0005F0100085F0100085F0100085F010008B0
:1000B0005F0100085F0100085F0100085F010008A0
:1000C0005F0100085F0100085F0100085F01000890
:1000D0005F010008D90800085F0100085F010008FF
:1000E0005F0100085F0100085F0100085F01000870
:1000F0005F0100085F0100085F0100085F01000860
:100100005F0100085F0100085F0100085F0100084F
:100110005F0100085F0100085F0100087508000822
:100120005F0100085F0100085F0100085F0100082F
:10013000DFF80CD000F096F800480047390D0008B1
:10014000980400200648804706480047FEE7FEE77F
:10015000FEE7FEE7FEE7FEE7FEE7FEE7FEE7FEE777
:10016000150800083101000840EA01039B0703D08D
:1001700009E008C9121F08C0042AFAD203E011F8E6
:10018000013B00F8013B521EF9D270470246C9B24A
:1001900000E0401C0378002BFBD102E003788B4287
:1001A00003D0401E9042F9D20020704770B5064639
:1001B00000F000FC046805460A220021304600F0E9
:1001C00018F82C6070BD30B50B4601460020202287
:1001D000012409E021FA02F59D4205D303FA02F554
:1001E000491B04FA02F52844151EA2F10102F1DCB4
:1001F00030BD2DE9F04791460F4680460446002663
:1002000014F8015B2DB100F03FF80068405DC007B5
:10021000F6D12B2D02D02D2D18D0641E4A4639461A
:10022000204600F035F827B13968A14201D1C7F85E
:10023000008071054FF002040BD54042002803DD19
:1002400000F0B8FB0460A007BDE8F08746F48066C4
:10025000E4E70028F8DA00F0ADFB04606FF000403E
:10026000F2E70000064C074D06E0E06840F00103AD
:1002700094E8070098471034AC42F6D3FFF75CFFD0
:10028000180F0008380F000800487047140F0008C6
:100290002DE9F05F82460078002715468B460AF16B
:1002A0000104B946302801D09DB113E014F8010BC8
:1002B0000127782803D0582801D045B10AE00DB1B4
:1002C000102D07D10027102514F8010B02E0082596
:1002D00000E00A250026B0460EE005FB080005FBFD
:1002E00006F1012701EB10461FFA80F8B6F5803FB2
:1002F00000D3B94614F8010B294600F018F800287D
:10030000EBDABBF1000F05D00FB1641E00E05446DC
:10031000CBF80040B9F1000F06D000F04BFB0221F2
:100320000160C81EBDE8F09F48EA0640FAE73A2897
:1003300000D2303820F02002412A01D3A2F1370048
:10034000884201D34FF0FF307047000010B50446DB
:10035000224604A1054800F019FB0521034800F0DE
:10036000BFF910BD2530346C750A0000090000206B
:1003700010B500BF054800780028FBD000200349D5
:10038000087000F09FF880B210BD0000140000203B
:1003900070B505460C464EF6602090FBF5F00A4914
:1003A000088004EB4400C0EBC4104FF6FF7101EA73
:1003B000C0000649088000F02FF800F089F800F02E
:1003C000B9F800F085F870BD100000201200002080
:1003D00070B504460D4600BF064800780028FBD0E3
:1003E0000548FFF7E3FE20800448FFF7DFFE288082
:1003F00070BD000008000020840000208E00002056
:1004000010B500F0E9F800F087F910BD10B500F064
:10041000E3F800F081F910BD2748806940F40070CE
:10042000254988610846806940F0100088612348AA
:10043000006820F47060214908602148006820F4B9
:1004400080701F490860081D006840F00200091D07
:1004500008600846006820F40060086008460068EC
:1004600020F4801008600846006840F460200860AE
:1004700013482830006820F47000114928310860C2
:100480000F483030006820F01F000D4930310860FF
:100490000846006840F00C00086009480830006811
:1004A00020F4E0700649083108600846006840F012
:1004B00080000860704700000010024000100140FA
:1004C000042401400148006880B270474C24014078
:1004D0001248006840F001001049086008460068B2
:1004E00040F00400086000BF0C48006800F0040001
:1004F0000028F9D10948006840F001000749086068
:100500000846006840F48000086000BF03480838CF
:10051000006800F002000028F8D07047082401406D
:100520000348006820F0010001490860704700009E
:100530000824014010B51F48C06940F020001D4943
:10054000C86141F61F401C4908800920091D088028
:1005500019481438008840F0010017491439088000
:10056000081F008820F00100091F0880081F00886C
:1005700040F00100091F088037200221002807DA17
:100580000A07140E0D4A00F00F031B1FD45403E09A
:100590000A07130E0A4A135400BF372000F01F0247
:1005A000012191404209920002F1E022C2F80011BB
:1005B00000BF10BD001002402814004018ED00E0FC
:1005C00000E400E00348008820F0010001490880B1
:1005D000704700000014004010B53B48806940F4AB
:1005E0008040394988610846806940F0040088618C
:1005F0003648006840F0B00034490860084600689A
:1006000020F0400008600846006840F48060086000
:100610000846006820F43060086040F271202C49E0
:100620000880081D008820F48050091D08800846B5
:10063000008820F480600880081D008820F4405065
:10064000091D0880081F008840F00800091F088065
:100650000846008840F0040008800846008840F002
:10066000200008800846008840F010000880032021
:100670000246184B19684FF6FF031940164B0B43FF
:1006800043EA0221134B196000BF252003210028F3
:1006900008DA0A07140E0F4A0C3200F00F031B1F72
:1006A000D45403E00A07130E0C4A135400BF25204C
:1006B00000F01F02012191404209920002F1E02264
:1006C000C2F8001100BF10BD001002400408014034
:1006D000083801400CED00E00000FA0500E400E0FD
:1006E00010B503460C46002204E0985C00F006F8C2
:1006F000501CC2B2A242F8DB10BD000000BF054989
:10070000098801F080010029F9D00249091D0880FB
:1007100070470000003801400348008840F4005052
:1007200001490880704700000C38014010B500F006
:1007300001F810BD0CB5002001900090334800680E
:1007400040F480303149086000BF3048006800F450
:10075000003000900198401C0190009818B9019851
:10076000B0F5A06FF1D12948006800F4003010B155
:100770000120009001E0002000900098012843D162
:100780002348006840F010002149086008460068CE
:1007900020F0070008600846006840F0020008608A
:1007A0001A48406819494860084640684860084649
:1007B000406840F4806048600846406820F47C103F
:1007C00048600846406840F4E81048600846006801
:1007D00040F08070086000BF0C48006800F00070B6
:1007E0000028F9D00948406820F003000749486014
:1007F0000846406840F00200486000BF0348406877
:1008000000F00C000828F9D10CBD000000100240D7
:100810000020024010B51348006840F00100114963
:10082000086008464068104908400E49486008467C
:1008300000680E4908400B4908600846006820F42B
:10084000802008600846406820F4FE0048604FF4AD
:100850001F008860FFF76AFF4FF0006004490860DE
:1008600010BD0000001002400000FFF8FFFFF6FE80
:1008700008ED00E010B50848008820F001000649A6
:10088000088006480068401C044908600846006863
:1008900000F006F810BD0000101400400400002015
:1008A00010B5044609480088844203D3FFF78AFE46
:1008B000FFF736FE06480088B4FBF0F100FB11405C
:1008C00010B901200349087010BD0000120000207B
:1008D000100000201400002010B51248008800F01D
:1008E000200060B10F48001D00880F490F4A1278A0
:1008F00088540E480078401C0C49087011E00948E3
:10090000008800F0100060B1064800880548001D0E
:10091000008806480178044800F00AF800200349DE
:10092000087010BD003801402000002000000020A9
:1009300070B504460D462078732805D1AA1E611CA7
:100940000748FFF711FC0AE02078632807D1AA1EA8
:10095000611C0448FFF708FC01200349087070BDC2
:10096000840000208E000020080000200FB4054BFA
:1009700010B503A9044A029800F030F810BC5DF8E5
:1009800014FB0000290D0008180000200FB4084BCC
:1009900010B504A902AA039800F020F8044602A9A1
:1009A000002000F0BCF9204610BC5DF814FB0000EC
:1009B0001F0D0008004870471C00002002E008C816
:1009C000121F08C1002AFAD170477047002001E0C9
:1009D00001C1121F002AFBD1704700002DE9FF4F13
:1009E0008BB088460546002606E025280BD0DDE9B9
:1009F0000D1290476D1C761C28780028F5D10FB099
:100A00003046BDE8F08F0024A146A2460122AE493F
:100A100000E0044315F8013F203B02FA03F00842CE
:100A2000F7D128782A2810D06FF02F022878A0F16B
:100A30003001092915D809EB890102EB410144F085
:100A4000020400EB01096D1CF0E758F8041B5FEA93
:100A5000010903D544F40054C9F1000944F002042B
:100A60006D1C28782E2817D115F8010F44F00404C6
:100A70002A280ED06FF02F022878A0F13001092922
:100A80000AD80AEB8A0102EB410100EB010A6D1C56
:100A9000F2E758F804AB6D1C28786C280FD006DC00
:100AA0004C2817D068280DD06A2814D104E0742887
:100AB00010D07A280FD10DE044F400140AE044F479
:100AC000801401E044F440146978814202D104F5B5
:100AD00080146D1C6D1C2878692865D006DC002800
:100AE0008DD0632827D0642806D15DE06E2808D019
:100AF00073282AD0752877D0DDE90D129047761C2F
:100B0000E0E0C4F30250022809D003280DD0D8F841
:100B1000001004280DD00E6008F10408D2E0D8F8C7
:100B20000010F217C1E90062F6E7D8F800100E8055
:100B3000F2E70E70F0E718F8041B8DF800100020A3
:100B40008DF80100EB46012003E058F804BB4FF09C
:100B5000FF3061074FF0000701D40AE07F1C5745C2
:100B60000DDA8742FADB1BF807100029F6D106E000
:100B70007F1C8742FCDB1BF807100029F8D1DDE958
:100B80000D23A9EB07008146214600F0B1F830445F
:100B9000C61904E0DDE90D121BF8010B90477F1E1A
:100BA000F8D22146484688E058F8040BC4F30251B5
:100BB0004FF00A0B032900D100B2042900D140B242
:100BC000002802DA40422D2102E0210505D52B2123
:100BD0008DF82410012104E006E0E10710D0202167
:100BE000F6E708AF089113E058F8040BC4F302517C
:100BF0004FF00A0B032900D180B2042900D1C0B202
:100C00000021EEE75946FFF7DEFA303107F8011D03
:100C10000028F7D1ADEB070000F1200B600702D5EB
:100C200024F4803401E04FF0010ADA4502DDAAEB3A
:100C30000B0000E00020824600EB0B010898014405
:100C4000A9EB01000A90E00306D4DDE90D2321465B
:100C50000A9800F04DF806444FF0000908E009A991
:100C600011F80900DDE90D12904709F10109761C20
:100C700008998945F3DBE0030CD5DDE90D23214616
:100C80000A9800F035F8064404E0DDE90D12302042
:100C90009047761CBAF10001AAF1010AF5DC05E0E3
:100CA000DDE90D1217F8010B9047761CBBF100012E
:100CB000ABF1010BF4DC0A982146DDE90D2300F0CD
:100CC00005F806446D1C97E6092801002DE9F0415E
:100CD000044600251E461746880404D405E039461C
:100CE0002020B0476D1C641EF9D52846BDE8F08170
:100CF0002DE9F041044600251E469046C80301D563
:100D0000302700E02027880404D505E04146384616
:100D1000B0476D1C641EF9D52846BDE8F0810A680D
:100D2000531C0B601070704700B502460B46D0B2E2
:100D3000FFF7E4FC104600BD1CB5FFF767FB5C2124
:100D40002FA0FFF723FA28B15C212DA0FFF71EFA90
:100D5000401C00E02AA004460E2221462AA0FFF7EC
:100D600005FEFFF74DFB5C2125A0FFF70FFA28B128
:100D70005C2123A0FFF70AFA401C00E020A00446F3
:100D80001422214628A0FFF7F1FD694601A8FFF7CC
:100D90001FFB5C211AA0FFF7F9F928B15C2118A00C
:100DA000FFF7F4F9401C00E015A00446BDF804303C
:100DB0001722214629A0FFF7D9FD5C2110A0FFF7DB
:100DC000E5F928B15C210EA0FFF7E0F9401C00E036
:100DD0000BA00446BDF800301822214625A0FFF7DD
:100DE000C5FDBDF80010BDF80400FFF7D1FA06E01C
:100DF000FFF7BEFA04462046FFF7A8FA00BFF7E760
:100E00006D61696E2E6300005B25733A25645D2D6C
:100E10002DD0C4B5E7CFEEC4BFBFAACABCD4CBD0D7
:100E2000D02E2E2E0D0A00005B25733A25645D2D11
:100E30002DC7EBCFC2B7A2D6B8C1EEA1B0B2C9D10F
:100E4000F9C2CAA3A873313030305C6EA3A9BACD01
:100E5000633230305C6E0D0A000000005B25733A8F
:100E600025645D2D2DB2C9BCAFC2CACEAAA3BA25D6
:100E7000640D0A005B25733A25645D2D2DB2C9BC53
:100E8000AFCAB1BCE4CEAAA3BA25640D0A00000023
:100E9000004040404040404040404141414141408D
:100EA0004040404040404040404040404040404042
:100EB00040050202020202020202020202020202D1
:100EC00002202020202020202020200202020202D6
:100ED000020290909090909010101010101010102E
:100EE000101010101010101010101010020202023A
:100EF000020288888888888808080808080808087E
:100F00000808080808080808080808080202020279
:100F100040000000910E0008380F0008000000207B
:100F200020000000BC090008580F00082000002025
:100F300078040000CC090008000000000000000058
:100F400000000000000000000000000000000000A1
:080F5000000000000000000099
:0400000508000131BD
:00000001FF
